:100000000C945E000C9486000C9486000C94860080
:100010000C9486000C9486000C9486000C94860048
:100020000C9486000C9486000C9486000C94860038
:100030000C9486000C9486000C9486000C94860028
:100040000C9431040C9486000C94FF030C94D90397
:100050000C9486000C9486000C9486000C94860008
:100060000C9486000C948600000000080002010039
:100070000003040700000000000000000000000072
:10008000250028002B0000000000240027002A0083
:10009000040404040404040402020202020203032E
:1000A0000303030301020408102040800102040836
:1000B00010200102040810207B04B60611241FBE84
:1000C000CFEFD8E0DEBFCDBF11E0A0E0B1E0E2EAC3
:1000D000F3E102C005900D92AE31B107D9F721E0EE
:1000E000AEE1B1E001C01D92A03EB207E1F710E021
:1000F000CDE5D0E004C02197FE010E94C107CC35B8
:10010000D107C9F70E94B3040C94C4090C940000F1
:1001100090E0FC01EC55FF4F249180579F4FFC016C
:100120008491882399F090E0880F991FFC01EA5789
:10013000FF4FA591B491FC01E458FF4F8591949134
:100140008FB7F894EC91E22BEC938FBF089508954C
:10015000AF92BF92CF92DF92EF92FF920F931F93D5
:10016000CF93DF936C017B018B01040F151FEB0113
:100170005E01AE18BF08C017D10759F06991D601CA
:10018000ED91FC910190F081E02DC6010995892B3C
:1001900079F7C501DF91CF911F910F91FF90EF90FB
:1001A000DF90CF90BF90AF900895FC01538D448DA8
:1001B000252F30E0842F90E0821B930B541710F012
:1001C000CF96089501970895FC01918D828D98171F
:1001D00061F0A28DAE0FBF2FB11D5D968C91928DF7
:1001E0009F5F9F73928F90E008958FEF9FEF089528
:1001F0002FB7F8948091290190912A01A0912B01A9
:10020000B0912C012FBF8093350190933601A093BC
:100210003701B09338018DE291E00E94E40097FF2E
:1002200026C02FB7F8948091290190912A01A091BE
:100230002B01B0912C012FBF409135015091360117
:100240006091370170913801841B950BA60BB70B99
:10025000409131015091320160913301709134012C
:1002600084179507A607B707B0F28FEF9FEF0895A1
:10027000FC01918D828D981731F0828DE80FF11D70
:10028000858D90E008958FEF9FEF0895FC01918D8B
:10029000228D892F90E0805C9F4F821B91098F7384
:1002A000992708958DE291E00E94460121E0892B73
:1002B00009F420E0822F089580E090E0892B29F056
:1002C0000E94520181110C9400000895FC01A48D3C
:1002D000A80FB92FB11DA35ABF4F2C91848D90E068
:1002E00001968F739927848FA689B7892C93A0894B
:1002F000B1898C91837080648C93938D848D9813D5
:1003000006C00288F389E02D80818F7D8083089567
:10031000EF92FF920F931F93CF93DF93EC0181E055
:10032000888F9B8D8C8D98131AC0E889F9898081FC
:1003300085FF15C09FB7F894EE89FF896083E8892F
:10034000F98980818370806480839FBF81E090E021
:10035000DF91CF911F910F91FF90EF900895F62EAE
:100360000B8D10E00F5F1F4F0F731127E02E8C8D48
:100370008E110CC00FB607FCFACFE889F98980818D
:1003800085FFF5CFCE010E946601F1CFEB8DEC0F1A
:10039000FD2FF11DE35AFF4FF0829FB7F8940B8FAA
:1003A000EA89FB8980818062CFCFCF93DF93EC0114
:1003B000888D8823B9F0AA89BB89E889F9898C914D
:1003C00085FD03C0808186FD0DC00FB607FCF7CF09
:1003D0008C9185FFF2CF808185FFEDCFCE010E9409
:1003E0006601E9CFDF91CF91089590E0FC01E859D3
:1003F000FF4F2491FC01EC55FF4F3491FC01E05775
:10040000FF4FE491EE23C9F0222339F0233001F1AC
:10041000A8F4213019F1223029F1F0E0EE0FFF1F8E
:10042000E458FF4FA591B4918FB7F894EC91611106
:1004300026C030953E233C938FBF08952730A9F006
:100440002830C9F0243049F7809180008F7D03C0A7
:10045000809180008F7780938000DFCF84B58F7785
:1004600084BDDBCF84B58F7DFBCF8091B0008F77CB
:100470008093B000D2CF8091B0008F7DF9CF3E2B1A
:10048000DACF8E50806480937C0080917A00806403
:1004900080937A0080917A0086FDFCCF809178006D
:1004A0009091790008953FB7F89480911F01909141
:1004B0002001A0912101B091220126B5A89B05C081
:1004C0002F3F19F00196A11DB11D3FBFBA2FA92FD3
:1004D000982F8827BC01CD01620F711D811D911DD0
:1004E00042E0660F771F881F991F4A95D1F708953C
:1004F0008F929F92AF92BF92CF92DF92EF92FF9234
:100500004B015C010E9453026B017C010E9453026B
:100510006C197D098E099F09683E7340810591051C
:10052000A8F321E0821A9108A108B10888EEC80E4C
:1005300083E0D81EE11CF11C81149104A104B104D4
:1005400029F7FF90EF90DF90CF90BF90AF909F90F2
:100550008F900895CF93DF93EC0188819981009764
:1005600011F00E946308198218821D821C821B826E
:100570001A82DF91CF910895FC01808191810097CB
:1005800011F00C9463080895FC018081918100971B
:1005900011F00C94C20660E070E0CB0108950F9357
:1005A0001F93CF93DF938C01EB01FC01808191813C
:1005B0000097E1F06881798161157105A9F04281A8
:1005C00053812C813D814217530770F00E94BD0971
:1005D0008C819D81F801958384831D821C82DF912B
:1005E000CF911F910F9108950E946308888199818E
:1005F000F801918380838A819B81938382838C819C
:100600009D8195838483198218821B821A82E5CF8B
:100610000F931F93CF93DF93EC018881998100970B
:1006200059F02A813B812617370730F081E0DF91AE
:10063000CF911F910F9108958B016F5F7F4F0E94A3
:10064000EC08009759F0998388831B830A832C81D7
:100650003D81232B59F7FC011082E8CF80E0E7CFE2
:10066000EF92FF920F931F93CF93DF936115710564
:1006700041F480E0DF91CF911F910F91FF90EF90B7
:10068000089541155105B1F07B01EC010C811D81EC
:10069000040F151FB8010E940803882351F3288115
:1006A00039818C819D81B701820F931F0E94BD0902
:1006B0001D830C8381E0DECFEF92FF920F931F9397
:1006C000CF93DF93EC017B018A01BA010E940803FA
:1006D00081110BC0CE010E94AA02CE01DF91CF9101
:1006E0001F910F91FF90EF9008951D830C83B70128
:1006F000888199810E94BD09F0CFFC01118210828E
:10070000138212821582148250E040E06CE171E0A5
:100710000C945C03EF92FF920F931F93CF93DF93A0
:10072000CDB7DEB762970FB6F894DEBF0FBECDBF70
:100730008C01CB01F8011182108213821282158282
:1007400014824AE09E012F5F3F4F7901B9010E9458
:10075000E906F70101900020E9F73197AF014E1942
:100760005F09B701C8010E945C0362960FB6F89456
:10077000DEBF0FBECDBFDF91CF911F910F91FF90D4
:10078000EF900895CF93DF93EC016115710571F03F
:10079000FB0101900020E9F73197AF01461B570B91
:1007A0000E945C03CE01DF91CF9108950E94AA02BE
:1007B000F9CF1F920F920FB60F9211242F933F93F0
:1007C0004F935F936F937F938F939F93AF93BF9359
:1007D000EF93FF938DE291E00E946601FF91EF910C
:1007E000BF91AF919F918F917F916F915F914F9149
:1007F0003F912F910F900FBE0F901F9018951F9251
:100800000F920FB60F9211242F938F939F93EF9314
:10081000FF93E0913D01F0913E018081E091430121
:10082000F091440182FD1BC09081809146018F5F51
:100830008F7320914701821741F0E0914601F0E06B
:10084000E35DFE4F958F80934601FF91EF919F915D
:100850008F912F910F900FBE0F901F901895808150
:10086000F4CF1F920F920FB60F9211242F933F9344
:100870008F939F93AF93BF938091290190912A0109
:10088000A0912B01B0912C0130911E0123E0230F88
:100890002D3758F50196A11DB11D20931E0180939F
:1008A000290190932A01A0932B01B0932C018091F0
:1008B0001F0190912001A0912101B0912201019688
:1008C000A11DB11D80931F0190932001A0932101D0
:1008D000B0932201BF91AF919F918F913F912F9142
:1008E0000F900FBE0F901F90189526E8230F0296C9
:1008F000A11DB11DD2CFEDE2F1E01382128288EE8C
:1009000093E0A0E0B0E084839583A683B7838AE078
:1009100091E09183808385EC90E09587848784ECD7
:1009200090E09787868780EC90E0918B808B81ECBC
:1009300090E0938B828B82EC90E0958B848B86EC9D
:1009400090E0978B868B118E128E138E148E86ED0F
:1009500091E00E947D0380ED91E00E947D038AEC8E
:1009600091E00C947D03CF93DF93CDB7DEB7629710
:100970000FB6F894DEBF0FBECDBF789484B5826009
:1009800084BD84B5816084BD85B5826085BD85B533
:10099000816085BD80916E00816080936E001092B1
:1009A000810080918100826080938100809181002C
:1009B00081608093810080918000816080938000BD
:1009C0008091B10084608093B1008091B00081601B
:1009D0008093B00080917A00846080937A00809147
:1009E0007A00826080937A0080917A00816080939F
:1009F0007A0080917A00806880937A001092C1001A
:100A0000E0913D01F0913E0182E08083E091390167
:100A1000F0913A011082E0913B01F0913C018FECA2
:100A2000808310924501E0914101F091420186E0FE
:100A30008083E0913F01F09140018081806180835B
:100A4000E0913F01F0914001808188608083E091D6
:100A50003F01F0914001808180688083E0913F01F7
:100A6000F091400180818F7D80836EE170E080E0B5
:100A700090E00E94780289E00E9488008AE00E944B
:100A8000880060E089E00E94F50160E08AE00E9451
:100A9000F501412C84E0582E612C712C90E0A92E98
:100AA00090E0B92E80E10E9441027C018FE00E941B
:100AB00041028C0128EC30E0D7010E94BA07A30163
:100AC00092010E943307690128EC30E0D8010E94AE
:100AD000BA07A30192010E943307B901CE01019622
:100AE0000E948A03B601CE010D960E948A031886E1
:100AF0001F821A8619861C861B866D857E85611568
:100B0000710531F049895A89CE0107960E945C032C
:100B100041E050E068E171E0CE0107960E943003A9
:100B2000811104C0CE0107960E94AA024D815E8108
:100B300069817A81CE0107960E943003811104C039
:100B4000CE0107960E94AA024B855C856F8178854D
:100B50008DE291E00E94A80042E050E06AE171E07D
:100B60008DE291E00E94A800CE0107960E94BC028F
:100B7000CE010D960E94BC02CE0101960E94BC02DD
:100B80008DE291E00E944601892B09F4DDC0CE017F
:100B900001960E947D030E94F80097FD0CC08F8390
:100BA000188641E050E0BE01695F7F4FCE0101969B
:100BB0000E943003F0CFBE016F5F7F4F86ED91E062
:100BC0000E94CF02CE0101960E94BC028091DA0100
:100BD0009091DB01892B71F0E090D601F090D70164
:100BE0006CE270E0C7010E94B2098C010E191F0966
:100BF000892B11F40FEF1FEF1093280100932701A9
:100C0000CE0101960E947D038091DA019091DB0173
:100C10000097E9F078018017910708F47C01E091D2
:100C2000D601F091D701EE0DFF1DD08010826091AA
:100C3000D6017091D701CE0101960E94C203809126
:100C4000D6019091D701E80EF91EF701D082BE01BE
:100C50006F5F7F4F80ED91E00E94CF02CE01019641
:100C60000E94BC020F5F1F4FC090DA01D090DB01E1
:100C7000C016D10628F4902F812F8601C92ED82EB8
:100C8000CE0101960E947D03E090DA01F090DB0135
:100C90000E151F05F0F4CE14DF0408F47601E09180
:100CA000D601F091D701EE0DFF1DD080108260912A
:100CB000D6017091D701600F711FCE0101960E947D
:100CC000C2038091D6019091D701E80EF91EF70179
:100CD000D082BE016F5F7F4F8AEC91E00E94CF020D
:100CE000CE0101960E94BC0280ED91E00E94C402F8
:100CF0000091250110912601012E000C220B330BCF
:100D0000061717072807390739F0709326016093F3
:100D1000250189E00E94F5018AEC91E00E94C4025D
:100D20000091230110912401012E000C220B330BA2
:100D3000061717072807390739F0709324016093C5
:100D400023018AE00E94F5016AE070E080E090E013
:100D50000E947802A114B10409F4A4CE0E945201A9
:100D6000882309F49FCE0E9400009CCE8AEC91E07B
:100D70000E94BC0280ED91E00E94BC0286ED91E0F1
:100D80000C94BC021F93FC0199278827BC01E894AE
:100D900011911032E9F3193010F01E30C8F31B32F4
:100DA00051F01D3249F4689406C00E94F406610FA8
:100DB000711D811D911D119110531A30B0F33EF435
:100DC00090958095709561957F4F8F4F9F4F1F91A4
:100DD0000895BB274A3031F4992322F4BDE290955F
:100DE00081959F4F0C940A07592F482F372F262F94
:100DF000660F771F881F991F660F771F881F991F1F
:100E0000620F731F841F951F660F771F881F991F1E
:100E10000895BB27FB015527AA27880F991FAA1FF2
:100E2000A41710F0A41B83955051B9F7A05DAA3305
:100E300008F0A95DA193009779F7B111B1931192D0
:100E4000CB010C942307DC01FC01672F7191772300
:100E5000E1F7329704C07C916D9370836291AE1775
:100E6000BF07C8F30895052E97FB1EF400940E9457
:100E70004A0757FD07D00E94890707FC03D04EF4AC
:100E80000C944A0750954095309521953F4F4F4F10
:100E90005F4F089590958095709561957F4F8F4F26
:100EA0009F4F08952F923F924F925F926F927F9241
:100EB0008F929F92AF92BF92CF92DF92EF92FF926A
:100EC0000F931F93CF93DF93CDB7DEB7CA1BDB0B16
:100ED0000FB6F894DEBF0FBECDBF09942A883988BB
:100EE00048885F846E847D848C849B84AA84B984C2
:100EF000C884DF80EE80FD800C811B81AA81B981CE
:100F0000CE0FD11D0FB6F894DEBF0FBECDBFED01E1
:100F10000895A1E21A2EAA1BBB1BFD010DC0AA1F3A
:100F2000BB1FEE1FFF1FA217B307E407F50720F052
:100F3000A21BB30BE40BF50B661F771F881F991FCD
:100F40001A9469F760957095809590959B01AC0116
:100F5000BD01CF010895A29FB001B39FC001A39F1F
:100F6000700D811D1124911DB29F700D811D1124E2
:100F7000911D08950E94AB07B7FF0895821B930B44
:100F80000895EE0FFF1F0590F491E02D09940F9343
:100F90001F93CF93DF938230910510F482E090E0AD
:100FA000E091DE01F091DF0130E020E0B0E0A0E070
:100FB000309799F42115310509F44AC0281B390BE3
:100FC00024303105D8F58A819B816115710589F13D
:100FD000FB0193838283FE0111C040815181028114
:100FE000138148175907E0F04817590799F41097EB
:100FF00061F012960C93129713961C933296CF01C0
:10100000DF91CF911F910F9108950093DE0110930E
:10101000DF01F4CF2115310551F04217530738F0A5
:10102000A901DB019A01BD01DF01F801C1CFEF0188
:10103000F9CF9093DF018093DE01CDCFFE01E20F67
:10104000F31F819391932250310939832883D7CF9D
:101050002091DC013091DD01232B41F4209102012C
:10106000309103013093DD012093DC0120910001D8
:10107000309101012115310541F42DB73EB7409162
:10108000040150910501241B350BE091DC01F09126
:10109000DD01E217F307A0F42E1B3F0B28173907D9
:1010A00078F0AC014E5F5F4F2417350748F04E0FC4
:1010B0005F1F5093DD014093DC01819391939FCF9B
:1010C000F0E0E0E09CCFCF93DF930097E9F0FC01E4
:1010D000329713821282A091DE01B091DF01ED01FF
:1010E00030E020E01097A1F420813181820F931F1E
:1010F0002091DC013091DD012817390709F061C02A
:10110000F093DD01E093DC01DF91CF910895EA01D6
:10111000CE17DF07E8F54A815B819E014115510535
:10112000B1F7E901FB83EA8349915991C40FD51FB7
:10113000EC17FD0761F4808191810296840F951F61
:10114000E90199838883828193819B838A83F0E07C
:10115000E0E012968D919C9113970097B9F52D912F
:101160003C911197CD010296820F931F2091DC01D3
:101170003091DD012817390739F6309751F5109273
:10118000DF011092DE01B093DD01A093DC01BCCF42
:10119000D383C28340815181840F951FC817D9071B
:1011A00061F44E5F5F4F88819981480F591F5183C9
:1011B00040838A819B81938382832115310509F0C5
:1011C000B0CFF093DF01E093DE019ECFFD01DC01A3
:1011D000C0CF13821282D7CFB0E0A0E0E2EFF8E0F8
:1011E0000C9454078C01009751F4CB010E94C7075F
:1011F0008C01C801CDB7DEB7E0E10C947007FC01AB
:10120000E60FF71F9C0122503109E217F30708F49B
:101210009DC0D901CD91DC911197C617D70798F0E1
:10122000C530D10530F3CE0104978617970708F330
:10123000C61BD70B2297C193D1936D937C93CF019B
:101240000E946308D6CF5B01AC1ABD0A4C018C0E1C
:101250009D1EA091DE01B091DF01512C412CF12C9B
:10126000E12C109731F58091DC019091DD0188151A
:10127000990509F05CC04616570608F058C08091E1
:10128000000190910101009741F48DB79EB7409104
:10129000040150910501841B950BE817F90708F02C
:1012A00055C0F093DD01E093DC01F90171836083A7
:1012B000A0CF8D919C91119712966C9012971396D6
:1012C0007C901397A815B90559F56C0142E0C40E3E
:1012D000D11CCA14DB0420F1AC014A195B09DA0104
:1012E0001296159780F06282738251834083D901F0
:1012F0006D937C93E114F10471F0D7011396FC9384
:10130000EE93129776CF22968C0F9D1FF901918351
:101310008083F301EFCFF093DF01E093DE0169CF2B
:101320004816590608F42C017D01D3019ACFCB0150
:101330000E94C7077C01009749F0AE01B8010E94E6
:10134000A909C8010E946308870153CF10E000E09B
:1013500050CFFB01DC0102C001900D924150504082
:10136000D8F70895FC018191861721F08823D9F7D9
:10137000992708953197CF010895FB01DC01019071
:101380000D920020E1F7089510E0CDE5D0E004C013
:10139000FE010E94C1072196CE35D107C9F7F89406
:0213A000FFCF7D
:1013A2000000E0018000000000008801A800D500D4
:0E13B200D5014601E40038012C000D0A0000B0
:00000001FF
